:1000000000380020110400106D04001009130010C6
:1000100000000000000000000000000000000000E0
:100020000000000000000000000000006D0400104F
:1000300000000000000000006D04001049430010A3
:10004000F5250010FF2500100926001013260010CA
:100050001D2600106D0400106D0400106D040010CA
:100060006D0400106D040010073D0010113D0010DC
:100070006D0400106D0400106D0400106D0400107C
:100080006D0400106D0400106D0400106D0400106C
:100090006D0400106D0400106D0400106D0400105C
:1000A0006D0400106D0400106D0400106D0400104C
:1000B0006D0400106D0400106D0400106D0400103C
:10040000FFFFFFFFFFFFFFFFFFFFFFFFFE7FFFFF7D
:020000041000EA
:1004100072B610490F4A0F4B0E4C0E4D0D4E0D4F3C
:10042000B846B946BA46BB46BC460B490B4A521AB7
:10043000013A05DD0020042308601944043AFBDA80
:1004400007488546074880470748804762B600F05E
:10045000ADFFFEE700000000000000200038002093
:10046000003800208D14001005140010D0E7C0469D
:1004700002B4714649084900095C49008E4402BC37
:100480007047C046002243088B4274D303098B4255
:100490005FD3030A8B4244D3030B8B4228D3030C54
:1004A0008B420DD3FF22090212BA030C8B4202D3F6
:1004B0001212090265D0030B8B4219D300E0090A1E
:1004C000C30B8B4201D3CB03C01A5241830B8B4227
:1004D00001D38B03C01A5241430B8B4201D34B0310
:1004E000C01A5241030B8B4201D30B03C01A524175
:1004F000C30A8B4201D3CB02C01A5241830A8B42FA
:1005000001D38B02C01A5241430A8B4201D34B02E2
:10051000C01A5241030A8B4201D30B02C01A524146
:10052000CDD2C3098B4201D3CB01C01A52418309FA
:100530008B4201D38B01C01A524143098B4201D334
:100540004B01C01A524103098B4201D30B01C01A5F
:100550005241C3088B4201D3CB00C01A52418308D9
:100560008B4201D38B00C01A524143088B4201D306
:100570004B00C01A5241411A00D201465241104666
:100580007047FFE701B5002000F006F802BDC04645
:100590000029F7D076E770477047C046002B11D18D
:1005A000002A0FD1002900D1002802D00021C94320
:1005B000080007B4024802A14018029003BDC046DB
:1005C000D9FFFFFF03B4684601B5029804F054FB5D
:1005D000019B9E4602B00CBC7047C0461C21012303
:1005E0001B04984201D3000C10391B0A984201D316
:1005F000000A08391B09984201D30009043902A2F4
:10060000105C40187047C04604030202010101015A
:10061000000000000000000010B5002903D1FFF722
:10062000DDFF203002E00800FFF7D8FF10BDC04614
:1006300010B500F04FFE074B074C236000F0F8FAAE
:100640006060200000F0C2F800F0ACF8034800F051
:10065000F3FA10BDC0000020C42000206801002073
:10066000F8B503F087FE0500404B9E687609062723
:100670003F4C2368002B1ED02368012B41D17920E9
:1006800000F0A0FCC0466524013C00F0CFF8002C2F
:10069000FAD13849384804F0AFFA03F06BFE374B13
:1006A0000100180004F0A8FA354804F0A5FA35480E
:1006B00004F0A2FAE7E703F05DFEC823401B5B00ED
:1006C0009842D9D200F096F8013F2060002FCFD198
:1006D0002849294804F090FA03F04CFE274B01000A
:1006E000180004F089FA012431002748214004F061
:1006F00083FA244804F080FA2100244800F0FCFD2D
:10070000B5E700F0D7FD1B4F1B4E1C4D1D4C0028BC
:1007100016D03900300004F06FFA03F02BFE010010
:10072000280004F069FA1A4804F066FA200004F080
:1007300063FA642003F010FE8020000100F080FDC9
:100740003900300004F058FA03F014FE01002800CC
:1007500004F052FA0F4804F04FFA200004F04CFA6B
:10076000642003F0F9FD00F0A3FEF8BD00F007409F
:10077000C0200020924E0010424E0010494E001042
:10078000604E00105E4E00104F4E001080F00F4083
:10079000774E0010844E001010B5FFF749FFFFF7A9
:1007A0005FFF10BD10B50024064B1B68A34200D8A4
:1007B00010BD054AE300D3581B68002B00D09847B2
:1007C0000134F1E7D8200020D020002007490300A1
:1007D0000A68012030B5002A06D1086010001D68A3
:1007E000034C5B682560636030BDC046D8200020A4
:1007F000D0200020002070B50400094B1B68A342E4
:100800000BD9084BE500ED182B689B68002B05D031
:100810009847012802D1044B1D6070BD0134ECE7FC
:10082000D8200020D0200020CC20002010B51D4C66
:1008300023681B68DB68002B1FD09847103823689B
:10084000072828D8FFF714FE040A0D1013241D1AD8
:100850005B681B68002B10D098470EE05B685B68F4
:10086000F8E75B689B68F5E75B68DB68F2E75B6865
:100870001B69002B01D09847C04610BD5B681B6AFE
:10088000E8E71B6879201B69002BF6D09847F4E74E
:100890005B685B69DEE71B681B69002BEDD01F20DE
:1008A000F4E7C046CC20002013B508220C49684666
:1008B00004F0BEFA792000F085FB082000F082FBEE
:1008C000212000F07FFB00246B46185D013400F00E
:1008D00079FB082CF8D1792000F074FB13BDC046D9
:1008E000B34E0010010010B50A48437802781B028D
:1008F0001343827812041A43C3781B06134318BAB1
:10090000086000F0C7F97923002800D15A3B18008D
:1009100010BDC0466021002010B5792000F052FBC8
:1009200034230548022103700333437000F0B6FB03
:10093000792000F047FB10BD6022002010B579201F
:1009400000F040FB212000F03DFB00230448022181
:100950000370437000F0A2FB792000F033FB10BD60
:1009600060220020F7B52849284804F045F903F033
:1009700001FD274B0100180004F03EF9254804F062
:100980003BF9254804F038F900F0E6F905001F208E
:10099000002D36D1792000F015FB204E7478337885
:1009A00024021C4364BAA4B2230A7370E3080193BF
:1009B0000723234000933470E3080DD0184F38000C
:1009C0001722082100F09EFA792000F0FBFA019B23
:1009D00001350837AB42F2D1009B002B09D002341D
:1009E000E01A30181722082100F08CFA792000F064
:1009F000E9FA8022802031005200000100F0B2F9B3
:100A0000792000F0DFFAF7BDFC4E0010424E0010D6
:100A1000494E00105F4E00105E4E00106021002015
:100A20006221002007B51649164804F0E5F803F0E6
:100A3000A1FC154B0100180004F0DEF8134804F087
:100A4000DBF8134804F0D8F800F086F9002803D04A
:100A50001F2000F0B7FA07BD792000F0B3FA01A813
:100A6000FFF740FF1F28F3D000F024FC0028EFD050
:100A7000792000F0A7FA019800F070F9EBE7C04682
:100A8000EC4E0010424E0010494E00105F4E001018
:100A90005E4E0010F0B5274985B0274804F0ACF849
:100AA00003F068FC254B0100180004F0A5F8244869
:100AB00004F0A2F8234804F09FF800F04DF9040078
:100AC0001F20002C04D103A8FFF70CFF1F2803D11F
:100AD00000F078FA05B0F0BD0725792000F072FA31
:100AE000194F3E7901363540072E11D92000F30801
:100AF0000193C00014220821381800F003FA79206D
:100B000000F060FA0134019BE4B220009C42F0D175
:100B1000002D08D0701B38181422082100F0F2F9BB
:100B2000792000F04FFA03983200390000F0FAF80B
:100B30007920CDE7D34E0010424E0010494E0010F0
:100B40005F4E00105E4E001060210020F0B530496D
:100B500085B0304804F050F803F00CFC2E4B010037
:100B6000180004F049F82D4804F046F82C4804F029
:100B700043F800F0F1F8002804D01F2000F022FA1A
:100B800005B0F0BD03A8FFF7ADFE1F28F6D0792011
:100B900000F018FA234B03981C7907230134E70867
:100BA0001C4000F093F80190002F15D1002C11D0BB
:100BB00027001D4D039E0199300000F09DF801367D
:100BC000013F287003960135002FF3D1210016480C
:100BD00000F064FA7920D1E70026039D134B9D4273
:100BE00004D828000199083000F086F828000199FF
:100BF00000F082F80C4B0135985501360395082E0C
:100C0000EBD13100180000F049FA013FCCE7C046B3
:100C1000BB4E0010424E0010494E00105F4E0010B7
:100C20005E4E00106021002060220020EFFF0100D6
:100C300000487047D400002070B5144D03002A68A6
:100C40000120002A20D1124C1A68596A22605A6881
:100C5000616262609A68A260DA68E2601A69226181
:100C60005A6962619A69DB6AA261E3629047082867
:100C700006D130232A685343E4188023DB026360E3
:100C800000202B6801332B6070BDC0460C21002072
:100C9000DC2000200B4B30B51C680B4B00221900E8
:100CA000944201D1002009E01D68854207D85D68A3
:100CB000854204D330235343C918C86830BD01327C
:100CC0003033EDE70C210020DC2000200200002062
:100CD00010B5074B1968074B814200D110BD1C6845
:100CE000944202D85C689442F8D201303033F3E782
:100CF0000C210020DC200020084B00221B6810B5CE
:100D00008B4208D930246143054B5B181B69934221
:100D100001D098470200100010BDC0460C210020F1
:100D2000DC20002070B504000D001600FFF7CEFF98
:100D3000074B1B6883420AD930224243054B9B185C
:100D40005B69002B03D0320029002000984770BD5A
:100D50000C210020DC2000200020704710B500F09E
:100D60006FFA10BD70B515000C00FFF7AFFF084B10
:100D700002001B680120934209D930214A43054BE8
:100D80009B18DB6A002B02D029002000984770BD19
:100D90000C210020DC2000200122144B10B51A7019
:100DA00002F0BAFA124A84061178124BA40FA1423B
:100DB00017D00021104819701049147003F01CFF5F
:100DC00003F0D8FA0E4B0100180003F015FF2100C4
:100DD0000C4803F011FF0C4803F00EFFC046C0465C
:100DE00010BD1A7801321A70F8E7C04611210020B0
:100DF0001801002010210020424E0010884F0010E2
:100E0000494E0010154F00105E4E001010B50248FC
:100E100003F030F910BDC0464450001013B5114C1A
:100E20001149200003F0BCF8021E04D160680F498C
:100E3000C0B202F077FA00236A461E212000137127
:100E4000009303F02FF91F2110236A46200003F0BE
:100E50005FF9011E05D1FF231F222000DB0003F0F4
:100E6000F5F913BD4450001010500010990D0010FA
:100E700070B50025194C0A2322001F21184803F0E1
:100E8000BBF90135060000F02FFA652D15D1154983
:100E9000154803F0B1FE03F06DFA144B0100180081
:100EA00003F0AAFE124803F0A7FE124803F0A4FEC6
:100EB0000121114800F020FA0025002EDAD100F0BF
:100EC00013FA210065680D4B48345D6022780831C3
:100ED0000B4803F0ADFFE8B270BDC04614210020FE
:100EE000445000106A4F0010424E0010494E00104E
:100EF0005F4E00105E4E001080F00F401C0100207D
:100F0000602100200023F7B51400264F00900191C6
:100F10007B606526234D0A232A001F21224803F007
:100F20006BF9002802D16B68A34214D0013E002E59
:100F3000F0D11E491E4803F05FFE03F01BFA1D4B63
:100F40000100180003F058FE1B4803F055FE1B4833
:100F500003F052FEDDE700F0C7F96B68A34215D03D
:100F60001249134803F048FE03F004FA114B010044
:100F7000180003F041FE22006968114803F03CFEAE
:100F80000E4803F039FE6B68A3420AD1002305E046
:100F9000FA18127A0099CA540133DBB2019A9342CB
:100FA000F6D3F7BD1421002044500010534F001019
:100FB000424E0010494E00105F4E00105E4E001071
:100FC0001C4F001073B5052205000021684603F090
:100FD0001FFF1A4E6A461E21300003F063F80122FB
:100FE000174C184B1E211A70636822002033300002
:100FF00025726360002503F0C5F80135652D11D118
:101000001149124803F0F8FD03F0B4F9104B010048
:10101000180003F0F1FD0F4803F0EEFD0E4803F059
:10102000EBFD00251E21300003F028F90028E4D153
:1010300000F05AF96368203B636073BD44500010B0
:101040001C010020640100203D4F0010424E0010A2
:10105000494E00105F4E00105E4E001010B50C4C53
:10106000142322001F210B4803F0C6F8002804D0E7
:10107000002400F039F9200010BD6368064A53606F
:10108000DBB2162BF4D17920FFF79CFF0124F0E7A7
:1010900014210020445000101C010020F0B585B040
:1010A0000E0005220021019002A803F0B1FE204F9E
:1010B0001E2102AA380002F0F5FF1E4C1E4D23002F
:1010C00048331E706368402220330021280063608B
:1010D00003F09EFE32002800019903F0A9FE2200D1
:1010E0001E21380003F04EF800250135652D11D181
:1010F0001249134803F080FD03F03CF9114B010045
:10110000180003F079FD104803F076FD0F4803F056
:1011100073FD00251E21380003F0B0F80028E4D14B
:1011200000F0E2F86368203B636005B0F0BDC046A4
:10113000445000101C01002024010020264F001004
:10114000424E0010494E00105F4E00105E4E0010DF
:1011500000787047F7B5204C2378002B02D001208F
:101160004042FEBD1D4B1E495B6A1E481B021E0FFE
:101170001D4B1E4F1E4D0193082E1ED103F03CFD4A
:1011800003F0F8F80100380003F036FD194803F0C9
:1011900033FD019803F030FD8023C822DB026B6031
:1011A000154BD2011A602800144901F049FA0028B1
:1011B000D5D1012370B22370D3E703F01DFD03F0F6
:1011C000D9F80100380003F017FD0D4803F014FDB5
:1011D000019803F011FDE6E77C2300200080044025
:1011E000CE4F0010424E00105E4E0010494E0010CF
:1011F0003C0200209E4F0010980100206023002038
:10120000B64F0010F8B5072306000F0014001A426D
:1012100001D09C4308340025A54200D3F8BD02F05C
:101220009FFD082205487B19A91901F081FA0028C1
:1012300000D0C04602F088FD0835EDE760230020AD
:1012400010B50400FFF7E2FD02F08AFD80F3088884
:1012500080F30988024A034BD4506368984710BD55
:1012600000E000E0080D0000F8B50E00040007885B
:10127000002502F075FD7608E719A619BC4201D0D9
:10128000B44205D16B1E9D4102F05EFDE8B2F8BD8F
:10129000A178002902D1C0460134EFE7802204483A
:1012A000C902120101F002FA431E98412D18F3E71A
:1012B0006023002010B5802424012000FFF7EAFC01
:1012C00003000020012B04D120680130431E984107
:1012D00040B210BD10B50249024802F0EDFF10BD4A
:1012E0004C5000105850001010B5024803F00EF892
:1012F00010BDC0465850001001238B4010B5190096
:1013000002F04FFD10BD0000F7B5C046C046174BB8
:101310000A240093164B00991800019303F06CFC0B
:1013200003F028F8134D0100280003F065FC124E6D
:10133000300003F061FC114F380003F05DFC002C1D
:1013400002D100F0B5F8F7BD0099019803F054FC04
:1013500003F010F80100280003F04EFC300003F009
:101360004BFC3800013C03F047FCE8E7FD4F001060
:10137000424E0010494E00105F4E00105E4E0010AD
:1013800010B50023064A0121064800F019FF00218C
:10139000080000F021FF0420034902F0E9FC10BD21
:1013A000802300209C0100205002002010B5FFF790
:1013B000E7FF03F0F7F8012202210C4802F0E8FCF5
:1013C0000B490C4803F018FC02F0D4FF0A4B010053
:1013D000180003F011FC094803F00EFC084803F064
:1013E0000BFCFFF7D9F9002010BDC04680F00F407C
:1013F000F84F0010424E0010494E0010E64F00100A
:101400005E4E00101249134A70B5521A124803F08A
:101410000FFD1249124A1348521A03F009FD124AED
:1014200012480021121A03F0F3FC1149114A124824
:10143000521A03F0FDFC114C1149124D8C4205D09B
:10144000114A20009208920003F0F2FC2C6070BD5B
:1014500058520010B8540010C0000020B8540010BA
:10146000EC5400102003002068270020C02000203A
:10147000EC5400109455001000FCFF1F00000020E9
:101480000000000008ED00E0C0000000044B054A29
:101490005A605A68044A1A60044A9A607047C04603
:1014A0000020054020C528D920210000FFFF0000B2
:1014B00003480449044B425892B2134343507047C7
:1014C00000E000E00C0D00000400FA05064B0220CD
:1014D0005B69DBB2042B06D00130802B03D01800EF
:1014E000012B00D00420704700E00740054B5A68EC
:1014F000802310005B0418401A4201D0024B186888
:101500007047C046FC400640842300208022094BDF
:10151000920099588022080052041040114208D0CD
:10152000822292009A580123100018401A4200D0DB
:10153000014870470040064000127A00C022074B65
:10154000920099588022080052041040114203D0A2
:10155000C22292009B5802487047C0460040064095
:10156000006CDC0270B5144C050023691B011B0FD5
:10157000022B12D0032B13D00020012B01D1FFF737
:10158000B5FF0F262169090C31400131FEF77AFFC2
:10159000012D08D0022D0DD070BDFFF7B7FFF0E789
:1015A000FFF7CCFFEDE72169090931400131FEF772
:1015B00069FFF1E72169F8E70040064010B501290D
:1015C0001ED0052807D0062814D0FFF79FFF8123DF
:1015D0000200184904E0FFF7B1FFC12302001549DA
:1015E0009B00C85807231840002802D00138C24089
:1015F000100010BDFFF77AFF0F4B02009868F1E76B
:10160000052807D006280FD0FFF780FF81230200AE
:10161000084904E0FFF792FFC123020005499B003F
:10162000CB585B05580FDFE7FFF760FF024B020066
:101630009B68F6E700400640FC4006400C4A1369F0
:101640001B079B0F022B07D0032B0DD00020002B74
:1016500009D1FA20400206E01269100018401A422F
:1016600001D0FA20C001704702231269F5E7C04695
:10167000008004400C4B00201B6A10B51B011B0F9F
:10168000032B07D81800FEF7F3FE0206090C022010
:10169000FFF768FF10BDFFF729FFFBE7FFF736FFF5
:1016A000F8E7FFF74BFFF5E7004006400F4A10B59B
:1016B00013699B069B0F022B11D0032B12D0012B19
:1016C00004D000210620FFF779FF07E0126902230A
:1016D000100018401A4201D0FA20C00110BD044B7E
:1016E0001868FBE700210520EDE7C04600800440B4
:1016F0008823002010B51E4C802362681B01100057
:1017000018401A4216D060680006000F0E282CD828
:10171000FEF7AEFE112B142B192B1C1F2B23082BAD
:10172000252B2800FA20400261684905490F013144
:10173000FEF7A8FE10BDFFF79DFFF5E7012106208B
:10174000FFF73CFFF0E701210420F9E70121052024
:10175000F6E70020FFF706FFE6E70120FAE7FFF7CC
:101760006DFFE1E7FFF7A2FFDEE70020DCE7C04600
:1017700000800440154B4000C35A154A9B0070B5C9
:101780009B1801260F221C681D6824090020344084
:101790001540A54214D31A68920F324210D01B682C
:1017A0005B015B0F022B0CD0032B0CD0B34202D198
:1017B0000630FFF703FF691CFEF764FE0134604347
:1017C00070BD0420F5E70520F3E7C0464E51001038
:1017D00000500640F0B5060085B000290AD16B46DE
:1017E00019732F4B6A4600932E4B694601930223CF
:1017F000FF3313812C4B01245A680220520E17002C
:10180000274022420BD15A682848294D02405A608D
:101810008022D2045A602F60002E02D1002005B031
:10182000F0BDE02007264A7AC00012020240087A82
:101830003040024330209A60CA79013612010240DA
:101840008879C000304002434879043E800030402F
:101850000243DA600A79012A12D0022A16D0002A3D
:1018600003D10A7BD20514435C600B68114C2B60DA
:10187000FFF73CFE00280FD1002C0BD10330CEE740
:10188000087B0D4AC00502435A60EEE7087B0B4A0D
:10189000C005F8E7013CEBE7002CBFD10320BEE711
:1018A00000127A0000010002FC400640FFFF7FFFAB
:1018B0008423002088E730000100010001000300BC
:1018C000F7B5060000290BD180236A465B009380A0
:1018D000022391716946FF331380013BFF3B9370F4
:1018E00080221F4B92009D5801246D0E2F00022074
:1018F0002740254207D198581A4D284098509F50AC
:10190000002E01D10020FEBDE02007258A78C0000E
:1019100012020240487828400243812080001A5079
:101920000A78043022401A5048798A7909790029C6
:1019300000D003248021D205800002432243642486
:1019400089005A50FFF7E2FD002805D1002C01D193
:101950000330D8E7013CF5E7002CD3D10320D2E7D0
:1019600000400640FFFF7FFF37B50400002908D183
:101970006A460123917153718022694652000A80A0
:101980008B70C0221E4B92009D580220AD0109D4DD
:1019900098581C4D284098508020C0049850002C26
:1019A00001D100203EBDE02007248A78C000120249
:1019B0000240487820400243C12080001A50032092
:1019C0000A780240C22080001A5048798A79092199
:1019D000002800D00839D2050A43C0211424890008
:1019E0005A50FFF7ABFD002805D1002C01D1033080
:1019F000D8E7013CF5E7002CD3D10320D2E7C0465D
:101A000000400640FFFF7FFFF0B585B001930AABB1
:101A10001C78019B07005E1C130001337343029383
:101A20004B1C73430D0000920393022C3ED0032CF9
:101A30003FD0012C06D0012856D00020022F10D014
:101A4000002049E0FFF752FD0009012F34D0022F9A
:101A5000F6D10C2262432F4BD3581B095E43B04290
:101A600039D80C2262432B4B02999B185A681209F1
:101A7000514381422FD39B68039A1B095A438242E8
:101A800029D3F02324061B051C400F23FF221D40F1
:101A9000009B2C431B011340F0221C43019B1203AB
:101AA0001B0413401C431C4B9C61C9E7FFF72EFD30
:101AB000CAE7FFF743FDC7E70C216143174BCA583C
:101AC00012097243904206D85B185A6802991209AB
:101AD0005143884202D9012005B0F0BD9B68039AAA
:101AE0001B095A439042F6D8F02324061B051C40DC
:101AF0000F23FF222B401C43009B1B011340F022AD
:101B00001C43019B12031B0413401C43024B5C61EA
:101B100096E7C0466050001000400640B4500010E8
:101B200037B50400FFF7D2FCE578A3786278217816
:101B30000095FFF769FF00280FD10A220F25E178F1
:101B4000064C2369013A1B0E2B408B4203D0002A1E
:101B5000F7D1032001E0002AFBD03EBD0040064043
:101B6000F0B50700A7B0002823D0CE4E3C00336963
:101B70001B011B0F032B0FD0FFF7E0FC011E04D14C
:101B80000120FFF7F1FE051E10D1C74B07A80793F0
:101B9000FFF7C6FF051E09D1FB782100180003934B
:101BA000FFF78EFE051E4ED0FFF790FC280027B0F1
:101BB000F0BD8024012208AB640009949C83BB4CD7
:101BC00014AD0C94BA4C2A700D9412AC22700AAC6D
:101BD000E777C02424031094B64C04AD1594B64C9A
:101BE00002211694B54CFF319C87B54C9A81249400
:101BF000162423943D3464192270B24C9A731A94BB
:101C00001BAC22707B24641922701CAC19922270C8
:101C100021AA11807622AC48521913971D971E975E
:101C20001F9708901981198399842090118022AA06
:101C300017807A225219177025AA1180862252190C
:101C400017701F0091E739007B7F10311800049353
:101C5000FFF7C0FD3C0005000590FFF737FC363468
:101C6000012803D00434022800D00024059B002B57
:101C70009CD1E378032B00D001E1049B002B00D022
:101C8000EFE0039B0125002B00D18FE78F4B07A8C6
:101C90000793FFF745FF0500002D00D086E7B87BCE
:101CA000F91DFFF761FE051E00D07FE7032307A89B
:101CB000C370A37883706378437023780370FFF751
:101CC0002FFF051E00D071E73B0030331B78002B3F
:101CD00002D07F4BFA6A1A603B0035331B78002B29
:101CE0000BD0326A7B4BF0211A403B0034331B7817
:101CF00009051B060B40134333623B0043331B783B
:101D0000002B00D0F4E03B6F002B00D017E13B002C
:101D100044331A78002A12D0FF246F486F4A416872
:101D200011405A78D2020A43997809012140E024EF
:101D30001143DA78E400120222400A4342601A7921
:101D4000002A13D03F210C24634802698A43197A80
:101D50001143DA7952000A439979890021401143ED
:101D60005A792434120122400A4302611A7F002A60
:101D700026D00121584A106C8843597F01431164D1
:101D80000221106C8843997F4900014311640421AA
:101D9000106C8843D97F8900014311640821106CBD
:101DA000884339004531C97FC900014311641021BE
:101DB000106C884339004631C97F09010143116421
:101DC0001B7B002B06D0464B7A6D1A60BA6D5A60A9
:101DD000FA6D9A603B004733DB7F002B23D0002055
:101DE0003D4A8024936E906651683E4B64011940D1
:101DF0003B004933DB7F1B0323400B4353603B0015
:101E000090664833DB7F83420DD03B000E214A337E
:101E1000DB7F5B000B4039004B31C97F0B438021D6
:101E200049050B439366380074300378002B00D1CA
:101E3000BCE67F212C4A447893780B407E39614080
:101E4000C9010B43DBB293700223C356002B01DAA6
:101E500020335BB21F201179034081430B43137180
:101E6000A4E6224B07A80793FFF75AFE039B050041
:101E7000002B00D110E7012800D00DE706E707A8E6
:101E8000C370A37883706378437023780370FFF77F
:101E900047FE051E00D089E6B87BF91DFFF764FDFB
:101EA0000FE7C046004006400301000300127A001D
:101EB0000001000203010101000303000102000010
:101EC000B002002001000001010101010100000237
:101ED00088230020FFFFFFF0008004400FF0FFFF89
:101EE0008C230020FFEFFFFF00D00740010100011D
:101EF00038003B003A003900393000783833373247
:101F000036311B781278097800900120FFF77CFDAC
:101F1000002812D138003B003A0039003D300078EB
:101F20003C333B323A311B7812780978009002201A
:101F3000FFF76AFD002800D1E5E6050036E6052139
:101F40001026FA6E4A439A189446114A03929C4509
:101F500000D1DCE61A7803995200515A0D4A8900E3
:101F600089180A680C48E02402400F200A601A7998
:101F7000E404024058788007024398780006204025
:101F80000243D87805330001304002430A60DEE79F
:101F90004E51001000500640FFFFFFBFF8B506008D
:101FA0000D00112835D80F2800D9ABE0FEF760FAF4
:101FB000080D0F55111417AA1A1D2025272A2C2F9A
:101FC0000020FFF7CFFA00243EE00120F9E70220CD
:101FD000F7E7FFF79BFAF6E7FFF7B0FAF3E7FFF74B
:101FE00085FAF0E76E4B1868EDE7FFF743FBEAE789
:101FF00000210420FFF7E2FAE5E70121F9E70021DB
:102000000520F7E70121FBE700210620F2E7012187
:10201000FBE7212800D978E015380C2800D971E0B9
:10202000FEF726FA07171B1E212B3D4F59616569E4
:102030006D005C4BDB689B0100209B0F0400032BB1
:1020400002D0594A9B009858002D00D028602000EB
:10205000F8BD544BDB681B01EEE7FFF74BFBB2E723
:10206000FFF724FBAFE70020504B04009B78DB090F
:10207000012BE9D0FFF7E2FAE6E700204B4B040022
:102080009B78DB09012BDFD0464B1A690123100036
:10209000184004001A42D7D0FA20800093E70020AD
:1020A000424B04009B78DB09012BCDD03D4B1A69D4
:1020B0000223100018401A4200D184E7FA20C00120
:1020C00081E70020394B04009B78DB09012BBBD052
:1020D000FA204002B8E7334B1B6C1B0901249C43D8
:1020E00000202402B0E72F4B1B6CDB08F6E72D4BDA
:1020F0001B6C9B08F2E72B4B1B6C5B08EEE7294B34
:102100001B6CEBE7002004249EE7042443289ED8A0
:102110000020222E98D03200323AD2B2112A04D8AE
:10212000234BD340DB0700D58EE7224B7200D35AF6
:10213000214A9B009B585B0003D48024002064004C
:1021400082E71E4B9F5D2023380018401F4218D0A5
:102150000120FFF707FA0028EFD0182338001840B5
:102160001F4200D12FE710243C403F0710D4002C21
:10217000E3D001213000FFF7FDFA4442444124023C
:1021800062E77B06E5D47BB2002BE6DA0220E0E7CB
:1021900000213000FFF7EEFA002CEED0E9E7C04650
:1021A00088230020008004408C23002000D00740BA
:1021B000290102004E510010005006400851001045
:1021C00010B5044C206021710020A260237363735A
:1021D00010BDC04698230020F0B585B003AE009036
:1021E00001913070717001F0BBFD2E4D00242B7BEE
:1021F0006B730123B3702B7BA34214D8009A2B6816
:102200009200D058FFF7ACFC009B071E6B7121D1E8
:1022100002230400B3702B7BA3422AD801F094FD63
:10222000380005B0F0BDAB68A200D358002B02D136
:102230000134E4B2DFE71A79022AF9D030001A68D3
:10224000996890470028F3D0019B6C73002BEFD165
:102250000427FF370023A400B370AB681B59002B81
:1022600003D030001A6899689047043C231DF4D1CC
:10227000D4E7AB68A200D358002B02D10134E4B2FA
:10228000C9E71A79012AF9D030001A68996890478D
:102290000028F3D0019B6C73002BEFD182277F00C5
:1022A000BCE7C0469823002010B5FFF777FE10BDAD
:1022B00010B5054C83002068C01803685960036896
:1022C00000209A6010BDC046A8230020094B820060
:1022D0001B6810B5D35803221040074A1077D077F7
:1022E000002B06D05A68002A03D0197B9868C9B21F
:1022F000904710BDA82300200080004070B5032443
:1023000005000D4E044000222100300000F0CEF800
:102310000A4BAD001B68EB58002B0BD00122347721
:10232000F477B4771A735A68002A03D0197B986837
:10233000C9B2904770BDC04600800040A82300206D
:10234000F0B501248BB0099310AB1B78089205936C
:102350002300059A0690934004936B4607911198C9
:10236000197CFEF715F920000D1E5CD10323069A97
:10237000334F1A4011003800039200F09DF880217D
:10238000039B09025C012F4BE619E2181388380001
:102390009B049B0C0B43138080223B68039993435F
:1023A0003B608023089A5B01F250274B099AE3189F
:1023B0001A60059B2A00019300932B0000F0B4F8EB
:1023C000079B032B17D81800204AFEF751F8020B81
:1023D0002E346B461B7CB5525BB29BB21C4AA218D2
:1023E000138008E06B461B7C5BB29BB2B3520022A9
:1023F000174BE3181A80119A0399114800F0ACF8B2
:1024000001220F48039900F0CBF80E4B0020E4188E
:10241000022322889A43134323800E4B1A68069B9B
:102420009B009B5818730BB0F0BD6B461B7C5BB2D6
:102430009BB2B352D2E7064BB552E3181D80DAE7E0
:10244000008000401C9000401090004004100000EC
:1024500014900040A8230020032110B50140012260
:10246000024800F023F8002010BDC0460080004064
:10247000032110B501400022024800F017F80020A7
:1024800010BDC04600800040032308221840044BC2
:102490004001C0180388C90093430B430380704771
:1024A0001C9000400048704700800040002A01D086
:1024B000C17670478176FCE7114B49014018C2187C
:1024C000002313608022520183500E4A83520E4A29
:1024D00083520E4A821813600D4A821813600D4A07
:1024E000821813800C4A821813800C4A82181360D9
:1024F0000B4A821813800B4A801803807047C0462D
:102500000810000004100000061000000C1000006D
:102510001010000014100000161000001810000029
:102520001C1000001E10000070B5FF2604AC2578BA
:1025300005AC2478DB003340F83E34401C43E023F4
:10254000D202DB002D021D40144380312C4349018F
:10255000A4B24018C48070BD036810B549011B06C1
:1025600017D50E4C43181B191C68002C06DB1C6881
:10257000640003D4920092081A6010BD074B411802
:10258000C9180B6892059B0A9B02920D1A430A60B8
:10259000F3E7024B4018C0180260EEE70810000095
:1025A000124B4901401810B5C418218813B2104AC3
:1025B00009B28018228800290BDADB05520AD90DEE
:1025C00052020A43228003885B0A5B020B430380AA
:1025D00010BDD20B5B045B0CD2031A43228002882D
:1025E000D20BD2031A430280F2E7C0461E1000004D
:1025F0001610000010B50020FFF768FE10BD10B5E2
:102600000120FFF763FE10BD10B50220FFF75EFE4C
:1026100010BD10B50320FFF759FE10BD70B50020A6
:10262000FFF740FF00240126C56A354202D0200092
:10263000FFF764FE0134E4B26D08042CF5D170BDDF
:10264000036810B50B604368154C4B6083688B6062
:10265000C3680B61036901208B61124BDA6C1204B1
:10266000120F904003002340204216D184246400BE
:10267000204208D1093A53425A4153420A4A134070
:10268000802212029B1880221202CB6093429B414F
:102690005B42DB0200204B6110BD01235B42F2E78D
:1026A000F67400000080044000A0FFFFF8B58368C6
:1026B000050016008B420FD8C2689A188A420BD9BF
:1026C000802212048C18E41A7005431E98410927D1
:1026D00080B2002E0CD1F8BD2C680120A142FAD3A3
:1026E0006A68A2188A42F6D90C1BEDE70220F2E7CD
:1026F0000028F0D10C4B1A7852B2002AF6DA702278
:102700001A70220CD2B2DF719A71220AD2B25A71B7
:10271000E2B21A71280002F093FD044BF6188023F0
:102720001B01E418D5E7C0460000024000F8FFFF97
:10273000F7B50C00019311000723060017000120D4
:1027400019401A4211D1B368A3420FD8F2689A18FF
:10275000A2420BD9802208001204A418E41A250012
:10276000E3199D4201D000280BD0FEBD3368012043
:102770009C42F4D372689A18A242F0D90020E41A5D
:10278000EDE7104B1A7852B2002A19DA7021019A3B
:1027900019706939D971290CC9B29971290AC9B25C
:1027A0005971E9B2121B1971074B5219115CC154CE
:1027B00001300828FAD1300002F042FD0835CFE799
:1027C0000220D2E70000024008000240244B8200B1
:1027D00070B5D45806002300FF339D7C002D1CD11A
:1027E0002A0005211F4800F05FFF2A0006211D482E
:1027F00000F05AFF2A0007211A4800F055FF002375
:102800002360A379002B02D0201D01F0DDFD637948
:10281000032B01D00023637170BD6279032AEED0CF
:102820002568587CFFF724FE2B689A0202D46A6858
:10283000920C6A602A001B031B0F48321370AB68AE
:102840001BBAAB60EB681BBAEB602300FC335D681E
:10285000002DD4D02300002208213000A847CEE765
:10286000AC2300200040024070B5C4B201290DD154
:102870000322084B8000C3585A711A00FC32556875
:10288000002D03D0002220000831A8472000FFF7C8
:102890009DFF70BDAC23002070B50C00094B80007B
:1028A000C558E400002208482E1900F0FDFEB37957
:1028B000002B03D00434281901F086FD0023737126
:1028C00070BDC046AC230020004002401F2803D842
:1028D00001238340014A13637047C0460040024011
:1028E000F0B58BB0039310AB150004CB80001B78C0
:1028F0000E0005931A4B0492C4581A4800F088FD44
:10290000864229D20227F300E41863793800002BAD
:1029100020D13000FFF7DAFF059B6771A371E97AD8
:102920002B7806AA6868E1711371AB7A90602889E8
:10293000937390810C23002900D010330693049BDD
:10294000310000930748039B00F0ECFF002801D002
:10295000002363710BB0F0BDC0208000FAE7C046D1
:10296000AC230020004002401149124A70B58B5838
:10297000114C07262340F8248B500368E4019B0286
:10298000234084688D5834402C43FF2523434468FA
:1029900064012C402343C468084D24052C40234384
:1029A000E0240069E4020004204003438B5070BD22
:1029B00000400240040C0000188308C00000F03FF3
:1029C00030B51F250F4A136DDB0FDB0713658168D8
:1029D000146D29402143F8240368A4009B061B0CB6
:1029E0000B434168490121400B43C168064C49052E
:1029F00021400B430169F8200904400301400B43C7
:102A0000136530BD004002400000E07F104A1149CC
:102A1000536810B50B4007215360036854680B409E
:102A2000C16809060B432343E0248168E4020904DA
:102A30002140E0240B434168A403C90421400B4317
:102A40000169C0208905000401400B43536010BD9B
:102A500000400240F8FF0000F0B5384B87B0059207
:102A60008200D458029027000391FF37BE7C012ECC
:102A70001AD16379032B17D1314DAA6A2B6B1340FE
:102A80005B0933420ED0280000F06CFE20222D4856
:102A90002E630368A96A2B6B0B401342F9D12848B7
:102AA00000F04EFE0023637163790220DAB20492D3
:102AB000002B1DD1224D2B689B0024D50126059BA0
:102AC0003200A371039B062123602800667100F089
:102AD000EBFD32000721280000F0E6FD3200052161
:102AE000280000F0E1FDBB7C0393B34202D000203C
:102AF00007B0F0BD1449787C029AFFF7D9FB061E97
:102B000003D0049B63710120F2E710230221787C3B
:102B10000193009123680D4AFFF712FC051E01D0B6
:102B20006671F0E7787C0399FFF7AEFC787CFFF7DD
:102B300093FC0028DBD06571E5E7C046AC2300209C
:102B4000004002408C400240692800108040024052
:102B5000F7B5164E0193164B8000C75830000C0095
:102B6000150000F055FC84421DD233689B0006D549
:102B7000736B1B011B0F5B0007339C4213D9E600EC
:102B8000BE1973790220DFB2002B0BD10122019B09
:102B90002100064872713560B37100F085FD002890
:102BA00000D07771FEBDC0208000FBE700400240EE
:102BB000AC23002070B50A4C0D00200000F0D2FDBF
:102BC000002D07D12368074A13400548236000F011
:102BD000B7FD70BD802322685B021343F5E7C04652
:102BE00000400240FFFFFEFFF7B5314E14003000F9
:102BF0001D000F0000F0B6FD7F22336813409C4299
:102C000001D81F2C05D92A4800F09AFDC020800069
:102C1000FEBD33689B000AD4002F44D1254BAD0480
:102C20001D4088239B00E418A40035511CE01E229F
:102C3000736BDB0D134007331A1C1F2B00D91F22A7
:102C4000D2B2A242E8D38822336892009B059B0F40
:102C50000193013BA418022B0BD92A000021380054
:102C600000F0AEFBA4003051114800F069FD0020D7
:102C7000CEE76B462A001979380000F0A1FB019BD2
:102C8000012B05D0022B08D00123A4005B4202E0F7
:102C9000030C0343A4003351E6E7030E020C134375
:102CA0000343000AF5E7012FDED1ED00ED08B8E798
:102CB000004002400000FC1FF0B56E4E89B0336842
:102CC0000D0014000190002B05DB300000F04AFDE0
:102CD000300000F0BFFB8021637A89015B037268DA
:102CE0000B40654963480A401343736000F098FB4A
:102CF000604800F037FD5F4800F0BAFB33685F4979
:102D0000227A0B40002A12D0802109010B43802136
:102D10003360336D09065B005B0819433165336826
:102D20001B05DB0F9A4208D0012009B0F0BD3360CB
:102D3000336D11005B005B08EFE7736B50491203C2
:102D40000B401A437263A379022B04D080223368AC
:102D50009202134333606379002B5BD12300343339
:102D600000931B78012B5CD133689B00DCD580225B
:102D70003368120213433360E1793E4800F09AFD54
:102D800021683C4800F07FFF0028CED12300326844
:102D90000C3303AE12054AD5320083CB83C203CB7A
:102DA00003C23000FFF70CFE23003200203383CB38
:102DB00083C203CB03C23000FFF7D6FDA1792D48B3
:102DC00000F040FDA379032B02D02A4800F0B8FCA4
:102DD0000A2000F0A1FF0A2000F09EFF0A2000F068
:102DE0009BFF0B2000F098FF0B2000F095FF2E00BA
:102DF00000270021301D01F0F8FAFB0000281FD049
:102E00000435EC18AC4200D18EE7280001F0F7FA47
:102E10000835F7E72179174800F05EFB00289DD0C0
:102E200083E7002BA8D13368164A1340A3E732008A
:102E300083CB83C203CB03C23000FFF7E7FDBDE7BE
:102E4000EB180137B071306058710836202FD0D19F
:102E50002B00009AFF33127835349A742278033BA2
:102E60001A75019A58609860D8601861064B9200F4
:102E7000D5505AE700400240FFDFFFFFFFF7FFFF9A
:102E8000FFEFFFFFFF7FFFFFAC230020100030B5F6
:102E9000047887B0556802AA1471847A0089956015
:102EA000908108200290002094730090024800F066
:102EB00039FD07B030BDC0460040024013B50C00DC
:102EC00000210191049900912100FFF709FD0028DC
:102ED00004D101222100024800F0E6FB16BDC046E5
:102EE0000040024030B585B00C0069461D005368B3
:102EF0001048029313780B71137A6A460B730F23F1
:102F0000210000932B0000F0E7FD002810D1009075
:102F10002B006A462100074800F0DEFD002807D19B
:102F200004236A46009321002B00024800F0D4FDE0
:102F300005B030BD0040024070B50D001600064CD3
:102F4000200000F00FFC32002900200000F0F4FA0D
:102F5000200000F0F5FB70BD00400240F7B50D0009
:102F60001C00174B8100CF5801232900FFF7F0FD0B
:102F7000061E21D1EB00181D21003818019301F025
:102F8000FFF90400032819D11F2D08D80D4B9A6AA8
:102F90001B6B1340EB4001221340013B1C400022FD
:102FA0002900084800F080FB019BFF187B79002B6B
:102FB00002D0002326007B713000FEBD3400F3E711
:102FC000AC230020004002401A4B70B5160082006E
:102FD000D5580122FFF740FD041E24D13100281DE1
:102FE00001F0CEF903281BD16B79002B00D004002F
:102FF00000220521104800F057FB002206210E4850
:1030000000F052FB002207210B4800F04DFB6B79CA
:10301000012B04D12B00FF339A7C012A05D020001C
:10302000002304006B71200070BD587CFFF720FA6C
:10303000F5E7C046AC23002000400240F7B5294B1D
:103040008600F5580193002D1CD02B00FC33DB6863
:10305000002B17D0802100222348C90100F03CFB3F
:10306000802100222048C90000F036FB8021002288
:103070001D48090100F030FB802100221A48090296
:1030800000F02AFB0A2000F053FE0A2000F050FE58
:103090000A2000F04DFE144C0B2000F049FE0B20DE
:1030A00000F046FE2368002B05DB200000F05AFBF1
:1030B000200000F0CFF9002D04D10024019B9C5189
:1030C0002000FEBD00242F1D0535FF35380001F01E
:1030D00096F9002800D001240837BD42F6D1002C13
:1030E000EBD0EDE7AC23002000400240074B82000C
:1030F000D25810B51300FC33DB68002B01D00A2135
:103100009847034800F054FB10BDC046AC23002094
:1031100000400240F7B5174B174C8200D658236881
:1031200001905B0424D5154D63599B030ED5802374
:1031300062599B02134363513300FC335B681F1ECB
:1031400004D03300002205210198B8476359DB03FE
:103150000ED5802362595B02134363513300FC3365
:103160005C68002C04D03300002206210198A0479F
:10317000F7BDC046AC23002000400240080B000011
:10318000F0B5594B594D8200D758AA6A2B6B0024D1
:103190001340012297B000901340002B25D02B68DC
:1031A000E20001929B0029D4E300FE187379012B01
:1031B0004DD121004D4800F061FD210032684B489F
:1031C00000F0F0FC0190002841D121000098AB688C
:1031D000FFF762FB2000FFF779FB3B00FC335E68E2
:1031E000002E34D03B00220021E00134202C65D099
:1031F000A96A2B6B0B40E3401340CEE7072CD3D8D2
:10320000052C16D17B79DAB20192012B1FD13968D6
:10321000364800F0D5FA0098FFF7D8FA20232B6340
:103220003B00FC335E68002E11D03B000022019968
:103230000BE0062C35D140232B633B00FC335E684A
:10324000002E04D03B00002202210098B047E3008A
:10325000FE187379022B22D121000098FFF71CFB86
:10326000F379002B0ED02100204800F007FD21004B
:103270001E4803AA00F096FCAB68039B1B011B0FC2
:10328000042B02D12000FFF721FB3B00FC335D68DB
:10329000002D04D03B00220004210098A84717B05D
:1032A000F0BD072CD3D180232B633B00FC335E6839
:1032B000002ECCD03B0000220321C6E7009B002B50
:1032C0000AD10B4BEA58EB58520C1B0C1343DB078B
:1032D00002D50098FFF71EFFEB69002BDFD00098A6
:1032E000FFF704FFDBE7C046AC23002000400240AC
:1032F000080B0000074A8000CB0081580020C91845
:103300004B79834204D048790338431E98410130F9
:103310007047C046AC230020014B186A7047C04676
:10332000004002401E4B8000C35810B5FC331D48BE
:10333000D9601A610C0000F015FA002C1BD0802116
:1033400001221848C90100F0C7F98021012215485F
:10335000C90000F0C1F9802101221248090100F0E2
:10336000BBF9012280210F48090200F0B5F90D4890
:1033700000F0E6F910BD802122000A48C90100F0E2
:10338000ABF9802122000748C90000F0A5F980218F
:1033900022000448090100F09FF92200E2E7C0463C
:1033A000AC23002000400240082806D90938C3B2E7
:1033B0000020062B01D8014AD05C7047D85100107C
:1033C0000300012912D00020022918D081420CD11B
:1033D000900F8007002B03D10B4BD2041A4003E05F
:1033E000012B02D1D200920810437047900F800742
:1033F000002BF1D0012BF8D1044B1204EEE7012B86
:10340000F3D81006F1E7C0460000F83F0000FF3F88
:10341000024BC018434258414001704700C0FDBFF5
:103420000368DB0210D50368084A5B005B08036091
:103430000368134003600368054A13400360802358
:103440001B0502681A42FCD17047C046FFFFFFBF50
:10345000FFFFFFEF0368002B09DB802302681B06D8
:103460001343036080235B0302681A42FCD0704759
:10347000802370B5040002689B041A43026022682E
:1034800015001D401A42FAD1802322685B011343C4
:1034900023602000FFF7BCFF2300020180339A184D
:1034A000934212D1882300221B01E31880001818D0
:1034B00083420CD1012300225B4223616361A3613B
:1034C000A2622363034B236270BD20C3E8E704C3F9
:1034D000EEE7C04606003B000268802370B5160088
:1034E0001B0104000D0001201E401A4218D12000CB
:1034F000FFF78EFF802322689B051343F022236091
:1035000012052D06636B1540094A80B213401D4316
:103510000123084A5B426563A364864201D300200D
:1035200070BD88239B00F3189B001A510136F4E705
:10353000FFFFFFF0FFFFFF1FF7B50400636B0800FC
:103540001B011B0F03291ED8FCF792FF02215A9F73
:1035500021685148802501402000013321609B01F2
:103560004E4CE030D318ED05167857785168F607C1
:10357000002F09D0C90089082E438919083201603B
:1035800004309342F0D1F7BDC9042140F5E720682B
:1035900041498026084080214900014380272000BE
:1035A0000133DB01D3182160E0300193F605FF0100
:1035B0001378147A55785168DB07E403002D16D090
:1035C000374D490029403343C9180160517AD36807
:1035D000002910D0DB0001689B0C3C431B190B43F6
:1035E0000360019B103204309342E1D1CBE72B4DB5
:1035F000C9042940E8E72B4DDB0001682B40EDE7CB
:1036000020682549FF250840802189000143216069
:103610002000FF2401331B02E030D3182404567825
:103620005168002E25D00668490D09063143567AA7
:103630000160D168002E1FD006684909214031433E
:10364000567C01605169002E19D00668490D0906A3
:10365000090C3143567E0160D169002E12D00668F4
:10366000490D294031432032016004309A42D6D1BD
:1036700089E70668C908D8E706684903DEE70668EF
:10368000C908E4E70668C908EBE7C02322689B0085
:103690001343236077E7C046FFFCFFFF0000F83FBD
:1036A0000000FF3FF83F000010B57F24036823406F
:1036B0008B420ED31F2906D801238B40002A04D049
:1036C000826A13438362002010BD826A9A43826239
:1036D000F9E7C0208000F7E7002A1AD08023DB003A
:1036E000994208D1802302689B0313430360436817
:1036F0000B434360704780231B019942F2D0802323
:10370000DB019942F3D18023426B1B0613434363D1
:10371000EDE743688B4343608023DB01994203D18B
:10372000436B5B005B084363C02342681B011A4282
:10373000E0D10368014A13400360DBE7FFFFDFFFCE
:103740000368064A134003600368054A1340036098
:1037500080235B0402681A42FCD17047FFFFFFEF31
:10376000FFFFFFBF80230268DB0513430360802354
:1037700002685B051343036002680123002A04DA30
:1037800003685B005B080360002380225204016829
:103790001142FCD0002B09D1802302681B06134381
:1037A000036080235B0302681A42FCD0704700006C
:1037B000026A024B1A4200D00362704706003B00C7
:1037C0000300F0B50D00071D0400F86F85B000037D
:1037D0008833000F0E000193FFF7E6FD2B004833FE
:1037E0001870FB6F083600902B6008349B0212D5CE
:1037F000E36F03226B6033001340164220D1009A1E
:103800009A421BD901999A0892008918096809BA45
:10381000B1500433F3E7E36F9B0CEAE7019AA30886
:103820009B00D3181B681BBA0422301903A9039309
:1038300001F0FEFA0434009BA342EFD805B0F0BDBE
:103840000024F8E7030010B50800042907D8FCF7A6
:103850000FFE0D1A1E0307001800FFF783FF10BDAF
:103860008022196812060A431A60F8E71A680E499E
:103870000A4008211A605A688A435A605A680B49FC
:103880000A405A60EBE7082259680A43F9E78022A8
:10389000596852010A4308215A605A688A435A609B
:1038A0001A6803490A40DFE7FFFF7FFFFFEFFFFFD2
:1038B000FFFFFDFF036810B51B0507D5C0221201ED
:1038C0008358034C090423401943815010BDC0465E
:1038D000FFFFFCFF02680823120508D5C0231B0167
:1038E000C35801209B039B0F033398400300D8B2B9
:1038F000704770B50E000400FFF7ECFF0830C5B24A
:10390000802029008000FCF7BDFDC1B23000FCF72B
:103910003FFEAD086943C0010918203189006018D5
:1039200070BD0000F7B50600150000930F00FFF70B
:10393000E0FF7F2233680400134080229205BB42DF
:1039400050D3336813425ED133681B0509D5AB7B76
:10395000002B06D0C02280231201B1581B060B4356
:10396000B350AB68FF27DAB2402A02D8574A3B402F
:10397000D75C089B002B48D10023236063602B7920
:10398000012B00D091E08021636889035B0F5B0706
:103990006360009B6268DB00DB08134363602B6895
:1039A0000F2B1DD0F0203A04000302400A431C2BC9
:1039B00002D1802149030A431F06F0231B051F4043
:1039C0002B7B1743002B02D080231B061F43AB7BAE
:1039D000002B02D08023DB051F4323683B43236079
:1039E0000020FEBD336813420AD0C0229200736BE0
:1039F0001B011B0F5B0007339F4201D9002AA3D094
:103A0000C0208000EDE70022F1E7F8B2FFF7CCFC20
:103A1000260001900320089B089A083603400242C2
:103A200039D1AA688243934225D29A089200B118EC
:103A30008C4608998A5812BA614604330A60F0E746
:103A40000899089A8C469C4461464978D25C0902E0
:103A5000114362469278120411436246D2781206EC
:103A60000A4399088900711812BA0A600433AA68D7
:103A700082439342E4D30321AA689A420DD80321DA
:103A8000019B934200D877E70B00687B5340F31803
:103A900018700132F4E70023E9E70A0008985A4059
:103AA000C05CB21810700133E6E7002B01D0002192
:103AB00075E76368064A074913406360009B6268C4
:103AC0009B040B4013436360F1E7C046DF510010D5
:103AD000FFFF03E00000FC1FF8B5050016001C0006
:103AE0000F00FFF706FF7F222B681340802292050C
:103AF000BB422BD32B68134239D1002303604360B0
:103B00003379012B35D1802302689B031343036073
:103B100003681F4AE400134003604368E4085B0F36
:103B20005B07436043681C43446033680F2B0BD032
:103B3000F0210368174A09051340036033680268DF
:103B40001B060B40134303600020F8BD2B68134293
:103B50000AD0C02292006B6B1B011B0F5B00073366
:103B60009F4201D9002AC8D0C0208000EDE7002282
:103B7000F1E7002BD9D10368074AA404134003607E
:103B80004368064A1340064A436043681440CAE744
:103B9000FFFFBFFFFFFFFFF0FFFF9FFFFFFF03E0FF
:103BA0000000FC1FF0B5150085B004000191FFF77F
:103BB000A0FE2B00083300930F2306000068000CC2
:103BC0001840FFF7F1FB2B004833187023680700FB
:103BD0009B0008D50F22636B1B0E13405B00019AFC
:103BE00007339A4247D933682B609B0217D5736815
:103BF0006B600323009C009A1C401A422DD13900AF
:103C000099438C4221D2A3089B001A000832B218B3
:103C1000126812BA00980434C250E4B2F1E7736833
:103C20009B0CE5E7A3089B000833F3181B681BBA3D
:103C3000200008300422281803A9039301F0F8F8A3
:103C40000434E4B2009B9C42ECD303222D190135CD
:103C5000BC4207D3002005B0F0BD3A009A430024CF
:103C60000092EFE7130063400833F3181B78013428
:103C7000EB71E4B2EBE7C0208000ECE710B5FFF792
:103C800038FE036810BDF8B50E000400FFF722FEF1
:103C9000751E070029002000FFF72BFEA023C01986
:103CA0009B00E318083083422AD32000FFF7B0FBC3
:103CB000B04225D37F2321681D40994329432160C9
:103CC0002268802315009B051D401A4212D0002057
:103CD000F8BD29002000FFF70CFE08210022030098
:103CE0004942026008334260081AC1188F4204D862
:103CF0000135EDB2B542ECD3E9E71A700133F4E7D0
:103D0000C0208000E4E710B50020FFF739FA10BDAD
:103D100010B5FFF7F8FF10BD1F22430910401E3AEF
:103D2000824002499B005A507047C04600E100E0C3
:103D30001F22430910401E3A8240024920339B0053
:103D40005A50704700E100E0044A1368002B04DD7C
:103D5000013B1360002B00D162B67047B0230020F6
:103D600072B6024A1368013313607047B023002013
:103D7000F8B505000E0000241827AC4201D1002040
:103D8000F8BD38006043301800F00EF80134F4E755
:103D900010B501248C408A400368A3431A43026093
:103DA00010BDC1607047000041680268F0B58C002A
:103DB000057A14192368012D41D0022D43D0002D1E
:103DC00001D10235AB4310254026E027AB43457AAD
:103DD000FF002D011D43837AB5439B0133402B43E4
:103DE0001F4D2B40C57A2E023E40F02733431D4E17
:103DF0003F033340067BF6031E431B4B1E40437BB1
:103E00001B043B403343867B002E02D08026760481
:103E1000334323600124C37B8C408B40C03217683E
:103E2000E643A7433B431360012D07D10569037D9A
:103E30006A69002B09D0012B09D06A61F0BDAB4340
:103E400002252B43BFE70325FBE73240F5E7437D1F
:103E500022438B402C68344023432B60EDE7C0465F
:103E6000FFF8FFFFFF7FFFFFFFFFF0FF8A7910B52C
:103E70004B89002A0CD00A8901249A420BD20748A8
:103E800000F022F8041E06D11620FFF745FF02E0DD
:103E90000124002BF3D1200010BDC04600200540B6
:103EA000054B1A68920402D5044A5A607047044AC6
:103EB0005A605A68034AF8E70020054002A680B419
:103EC00002A6000080B40000F7B5036807680093FD
:103ED000036804000D0001930126FFF741FF3F0630
:103EE00045D4019B9B0642D5254A009BC020134028
:103EF0001A00A9798000CB031A432B7B1B031A43BA
:103F00006B799B011A432B795B011A432B781B02B7
:103F100003401343EA78002A01D0042213436A784D
:103F2000002A01D002221343AA78002A01D00122DC
:103F30001343C122D2011343226892041BD5114AB4
:103F4000626062688022120120681042FCD0236007
:103F50006B89A360002901D02B89E3602368134299
:103F6000FCD18023DB0022681A42FCD00026FFF738
:103F7000EBFE3000FEBD044A62606268034ADFE780
:103F8000986CFFFF20C528D920C5000028D9000063
:103F9000002070470130C0008008053070470000E5
:103FA000F0B5037805000C00012691B0002B51D12B
:103FB000436800932B4B1A78002A03D12A4A0099B0
:103FC0001E70116000222368284E01933270029304
:103FD000237902A98B71A3790B72E379CB71E36822
:103FE00006932369079363690893A3680593A369FC
:103FF0000993236A0B93636A0C93A36A0D93E36995
:104000000A93E36A0E9363794B72236B934224D035
:10401000080001211F784171077182863800FFF77F
:10402000B9FF0121019B31701818029077706B461F
:104030000F49187802AAFEF73FFE061E0AD10B4B65
:104040001B78002B06D0236B686859785A68C0B279
:10405000FEF772FF300011B0F0BD02AA9380938684
:10406000E5E7C046382400203C240020B42300208B
:1040700040240020037810B504000120002B0CD14F
:104080006068C0B2FEF7DAFF002806D1034B626811
:104090001B689A4201D1024B187010BD3C240020CD
:1040A00038240020F0B5077803000C00160001202A
:1040B00087B0002F26D15B6803AD18000193FFF78E
:1040C00067FFF378104A2B7008236B6033782B72EC
:1040D000B3786B727378EF72AB7243011B199B005C
:1040E0009E500A4B4000C25C002A04D01B1858782E
:1040F000FFF750FF24186B462A001879E1B200231D
:10410000FEF7C4FE07B0F0BDB8230020B4230020A2
:10411000F0B587B00193037806000C00150001206C
:10412000002B28D1776803AE3800FFF731FFEB781A
:10413000402233702B78002B00D1383A72603372F2
:10414000AB780E4A73726B78B3722B79F3724301BA
:104150001B199B009D500A4B4000C25C002A04D0F2
:104160001B185878FFF716FF24183200019BE1B2A4
:10417000F8B2FEF7B7FE07B0F0BDC046B823002086
:10418000B4230020F0B51600027803000C000120D3
:1041900087B0002A2AD15F6803AD3800FFF7F8FE28
:1041A0004301134A1B199B009B584000DA782A7080
:1041B0003200483212786A601A782A729A786A72E3
:1041C0005A78AA721B79EB720A4BC25C002A04D09F
:1041D0001B185878FFF7DEFE2418330008330093CD
:1041E0002A007368E1B2F8B2FEF768FE07B0F0BDCE
:1041F000B8230020B4230020F8B51E000378070080
:104200000C0015000120002B10D17F683800FFF74B
:10421000BFFE0D4B4000C25CFFB2002A0CD0002C48
:1042200005D1320029003800FEF7CEFEF8BD1B187C
:104230005878FFF7AFFE241833002A003800E1B2A7
:10424000FEF78CFEF2E7C046B4230020F8B51F004D
:1042500003780E00050014000121002B0BD14068EB
:10426000C0B2FEF7A7FC686831003B00E2B2C0B202
:10427000FEF7BAFC01000800F8BD00000278030058
:1042800070B501200C00002A13D15D682800FFF7EB
:104290007FFE084B4000C25C002A06D0002C04D0F0
:1042A0001B185878FFF776FE2418E1B2E8B2FFF742
:1042B00021F870BDB42300207FB50C008E7A002158
:1042C00005008E4209D00B006268207A00F0A6FC3F
:1042D00064220023FCF762F901002B780420002BF4
:1042E00012D123686A46009301231371637A967191
:1042F0005371636868689BB2591A11815381E37ADC
:1043000069461373FFF7B2FD04B070BD037810B5B2
:10431000002B02D14068FFF7C3FD10BD37B5002563
:10432000280001A90195FDF7BFFFFA21054C89007E
:1043300025600198FCF7A6F807236060A56023605C
:1043400037BDC04610E000E0024A13680133136035
:104350007047C0465425002010B50400FFF7DEFF6B
:10436000034A116813685B1AA342FBD310BDC04611
:1043700054250020014B18687047C0465425002082
:1043800070B50D000400FFF7C9FF002D0DD1237893
:104390000320002B08D0FFF7E3FC2378013BDBB2BE
:1043A0002370FFF7D1FC002070BD064A1168237806
:1043B000002BF0D11368681CF9D05B1A9D42F6D22D
:1043C0000320F1E75425002070B50400FFF7C8FC76
:1043D00023780125FF2B04D023785B190025DBB25D
:1043E0002370FFF7B1FC280070BD70B504000D000C
:1043F000FFF7B6FC2570FFF7A7FC002070BD00207A
:10440000704707B56B46D91D08700122002000F0E7
:10441000AFF807BD0369C268934201D881685B1891
:10442000013B981A7047F7B58368C4680500406877
:104430001F1B00190E000193A418974207D83A00D9
:1044400000F0F6FC019B6868E41A2200F11900F004
:10445000EFFCEC60F7BD0023F7B506001700C56858
:10446000019100933369B4689D421FD2013B5B1BED
:10447000641BBC4200D93C009C4200D91C007068FF
:1044800022004019019900F0D3FC009B2D191B1943
:104490000093019B3F1B1B190193B368AB4200D1F2
:1044A0000025F560002FDDD10098FEBD1B19DDE76A
:1044B000032310B5104C114A23616361104BA261B4
:1044C000E361802322660F4A9B0023626266002319
:1044D00010220D490D48A3626362E3622367E3661D
:1044E0006367A26600F09CFC2000094900F098FC7C
:1044F0002023A37110BDC04600FCFF1F20520010F6
:1045000068250020582500202952001007FCFF1FB5
:104510002D52001070B514001822451C554342431B
:10452000124B0E00ED189B18DB6A012B0BD0022BEF
:1045300015D0002B04D12800FFF76CFF844208D966
:104540000024200070BD2800FFF764FF844200D9DA
:104550000400220031002800FFF765FFF1E7220088
:104560002800FFF778FF0400EBE7C04600FCFF1FC0
:10457000F8B50B4B04001B780E001700002B01D17F
:10458000FFF796FFEFF31085012181F310883A00C1
:1045900031002000FFF7BEFF85F31088F8BDC0464C
:1045A00000FCFF1F10B5FFF783FF10BD7047F0B58B
:1045B00093B0069318AB10CB1D9D1B781A9E0893E1
:1045C0008023DB002B401C9F0490059101920793F0
:1045D000002C04D110239D43079B002B1FD1612386
:1045E000AA0600D541230022DBB20A3B02940392C3
:1045F000099331000298FBF7CBFF099BCAB2D3188D
:10460000DBB2092901D83032D3B2039A0399541C82
:104610000AAA8B54029BB34201D3202C14D102234B
:104620002A001A4003921D4220D1013B2B40002F4B
:1046300008D0002B06D0089A002A02D10C3215426D
:1046400000D0013F302205E003940290D1E70AA98F
:10465000625401341B99A14201D9202CF7D1002BBF
:1046600004D03023A74201D91F2C17D9EB0646D519
:10467000079B002B33D1002C2BD01B9BA34201D0D6
:10468000BC422CD1631E012C23D0102E3ED1023C03
:10469000AB062AD51F2C34D8582327E00AAAA354E6
:1046A0000134DFE76223022E05D030230AAA012459
:1046B000137006E078230AAA1370302302240AAA92
:1046C0005370089B002B2FD02D230AAA13550134B9
:1046D00017E0102EE6D1AB06ECD55823EBE7102EF1
:1046E0001CD1AB06D6D41F2C0BD878230AAA13559D
:1046F00001341F2C05D830230AAA135501341F2C6E
:10470000DFD9019BAD0728D125001BE01C00022E3C
:10471000F1D162220AA95C1CCA54EAE7022EE8D150
:104720001F2CEED82300F4E76B0701D52B23CCE731
:104730002B07E6D52023C8E72020069B0599049E79
:10474000B0470135019B1A1B5219AF42F4D800261D
:10475000A74200D33E1B019BF31825000293029B46
:10476000E018421B002D0AD1039B002B05D0019BB2
:10477000C41A019B1819A74209D813B0F0BD0AAB9F
:10478000013DE85C0599069B049EB047E7E70200FF
:10479000069B20200599049DA8470134E9E710B540
:1047A000002801D0FFF72DFE10BD0000F0B591B03C
:1047B000169C0890099107920A93002901D1B34BE6
:1047C000089300263BE10A9B01330A93252806D073
:1047D0003200751C079B0999089EB0479FE1002392
:1047E000012008251CE02D2A30D0302A16D0303A7E
:1047F0000027092A40D900200A9A069011782E290C
:1048000049D18021C9000B430A9901324978080037
:104810003038092862D80A218C4636E003430A91D1
:104820000A9A0A99127801312B2A12D0DBD8202A51
:1048300011D0232A11D000272A2ADCD180CC002FC6
:1048400002DA02227F4213430A91D4E70222134381
:10485000E5E70422FBE72B43E1E71022F7E73A0004
:104860006A43303A8F180A900A9A1178501C0A004D
:10487000303A092AF3D9BEE70A25F5E76046069AD9
:104880004243303A8A1806922A001178551C0800D3
:1048900030380928F2D91178551C6C2931D029D823
:1048A000682936D06A293CD0150028786A1C0A92FB
:1048B00078288DD8632837D8622872D0632800D131
:1048C000ECE0252884D0582882D12022590500D533
:1048D00091E00C218B431A43043168E02A29DAD194
:1048E00004CC0692D2430699D21711400A9A069137
:1048F0000232D0E7742901D07A29D5D18022520022
:104900000BE051786C29F9D1C02189000B43951C2B
:10491000CBE75178682902D080221343C5E7C02134
:10492000F4E780229200F8E7010001226439C9B25D
:104930008A401100564D29402A4219D1732800D1CE
:10494000EFE0702800D043E72122134305930823AA
:104950000493069B019103931023029308CC320029
:1049600000930999079B0898FFF721FE060066E06F
:104970008025ED00782807D10D222B4200D10C2292
:1049800093431A00102112E06F2823D10C22190042
:1049900091430A0008212B4209D00D2293431A00AB
:1049A00005E05A0514D40C2293431A0002218023F7
:1049B00010009B0018401A4241D1251DD30559D53E
:1049C000069B0592049703930291019023682DE0C2
:1049D0000D22E9E71022190091430A0069280FD03F
:1049E00064280DD01C22190091430A000A212B4291
:1049F000DDD01D22D2E70D218B431A430331D6E7C8
:104A00002B4202D0112293431A00930517D4251D7F
:104A1000D30526D523680592069A049703920A22A5
:104A20000292DA0F0192DA179B185340320000937A
:104A30000999079B0898FFF7BAFD2C0006000A9B0E
:104A40001878002800D0BEE6079B32009E4200D3B3
:104A50005A1E0020079B0999089CA047300011B0FE
:104A6000F0BD2368510601D5DBB2D4E71106D2D5DB
:104A70001BB2D0E7236850060CD5DBB20592069A2C
:104A800004970392002202910192CFE7AD450010F6
:104A9000210812001006F1D59BB2EFE7022219009F
:104AA00011400C91134226D001230693230001CB21
:104AB00032000B930999079B751CC0B2089EB04742
:104AC0000C9B002B2AD02A00069E1FE02020079B6B
:104AD0000999089DA847069A531C06939B1BBB4245
:104AE000F4D300239F4200D07B1EF6180223002F30
:104AF000DBD07B1CD9E73200EEE7531C0C9320205F
:104B0000079B0999089CA0470C9A0136BE42F4D332
:104B1000069A0023974200D3BB1AED180B9C2E0077
:104B20008DE7220002CA0C92069A0B91002A01D14D
:104B3000012252420B990C008A182178002901D0D9
:104B4000944214D10B9A1900A41A8022D200114069
:104B50000D91134203D0069A944200D91400022208
:104B6000190011400E91134216D1320009E00134B0
:104B7000E3E7531C0F932020079B0999089DA84742
:104B80000F9AA31B9B189F42F3D80023A74200D380
:104B90003B1B0134F6181C19350008E006936B1C0A
:104BA0002A000F93089D079B0999A8470F9D0B9B0F
:104BB0009B1B585D002807D00D9B002BEFD0069B58
:104BC000069A013B002AE9D10E9B002B12D02A0045
:104BD00007E0531C06932020079B0999089EB047C5
:104BE000069A631BD3189F42F3D80023A74200D331
:104BF0003B1BED180C9C92E70FB41FB5012206A9D0
:104C000008C9524203910091034802A9FFF7CEFD63
:104C100005B008BC04B018479F470010F0B5CE4659
:104C20009946030C9C46130447461B0C1D000E00BE
:104C300061460404240C80B50700100C4B43654307
:104C4000414360432C0CC01824188C46A34203D95E
:104C500080235B029846C444494679435643230C5B
:104C60002D042D0C8919634424046019C918C0BC93
:104C7000B946B046F0BDC046F0B557464E4645462B
:104C8000DE46E0B504000D009246994683B08B42A3
:104C900030D82DD049465046FBF7BEFC290006000F
:104CA0002000FBF7B9FC331A9846203B34D49B46CE
:104CB00053465A46934042461F00534693401E00B7
:104CC000AF423BD8AF4200D179E05B46A41BBD4167
:104CD000002B00DA76E000220023009201930123EA
:104CE0005A4693400193012342469340009329E0A2
:104CF0008242CFD900220023009201930C9B002B0B
:104D000001D01C605D600098019903B0F0BCBB4607
:104D1000B246A946A046F0BD42469B4620239B1AB8
:104D20005246DA40414613004A468A40170042463E
:104D30001F43534693401E00AF42C3D900220023B5
:104D4000009201934346002BD8D0FB0772081A4308
:104D500046467B080EE0AB4201D1A2420CD8A41A11
:104D60009D41012024196D410021013E24184D412F
:104D7000002E06D0AB42EED9013E24196D41002E23
:104D8000F8D1009801995B4600196941002B24DB9A
:104D90002B005A464446D3402A00E2401C005B46A2
:104DA0001500002B2ADB26009E40330026004746D4
:104DB000BE403200801A9941009001919EE7A342C3
:104DC000BCD882E74246202300219B1A0022009192
:104DD00001920122DA40019285E7424620239B1A84
:104DE0002A0046469A402300F340444613432A00D3
:104DF000E2401C005B461500002BD4DA42462F002F
:104E00002023260097409B1ADE403B003343CDE72A
:104E100003008218934200D1704719700133F9E7FB
:104E200003000A7801311A700133002AF9D1704762
:104E3000002310B59A4200D110BDCC5CC45401339C
:104E4000F8E7443A20257320002D20256C750020BA
:104E50005744472052657365743A202564000A0060
:104E6000204F50454E424C5F436F6D6D616E6450F4
:104E7000726F6365737300204A554D5020544F2064
:104E80004150500020446576696365205265736522
:104E900074004F70656E426F6F746C6F6164657201
:104EA0005F50726F746F636F6C446574656374698F
:104EB0006F6E0010111213151417004F50454E421B
:104EC0004C5F464443414E5F526561644D656D6F72
:104ED0007279004F50454E424C5F464443414E5F0D
:104EE00057726974654D656D6F7279004F50454E0C
:104EF000424C5F464443414E5F476F004F50454E22
:104F0000424C5F464443414E5F45726173654D6557
:104F10006D6F727900204543202564003078257834
:104F20002030782578004F50454E424C5F46444330
:104F3000414E5F53656E644279746573004F50450E
:104F40004E424C5F464443414E5F53656E64427926
:104F50007465004F50454E424C5F464443414E5F9E
:104F6000526561644279746573004F50454E424CFE
:104F70005F464443414E5F476574436F6D6D616E9C
:104F8000644F70636F646500666C657843414E5F83
:104F90004572726F7243616C6C6261636B00533374
:104FA000324B31313820446576696365204465743D
:104FB0006563746564005333324B31313620446588
:104FC00076696365204465746563746564004F5059
:104FD000454E424C5F464C4153485F696E69744D83
:104FE000656D6F72790020426F6F746C6F616465DC
:104FF00072205354415254006D61696E00486172D1
:10500000644661756C745F48616E646C6572000023
:105010002000000000010000070000000400000064
:105020000100000002000000010000000700000075
:105030000400000001000000020000000100000068
:10504000000000000000000000000000010000005F
:10505000C409000000000001000000000000000082
:1050600000000000000000000000000000093D00FA
:1050700000093D0040420F0000093D0000093D00CD
:1050800040420F0000093D0000093D0040420F0072
:105090000000000000000000000000000000000010
:1050A000000000000000000000093D0000093D0074
:1050B00040420F000000000000000000000000005F
:1050C00000B4C404006CDC02B0F3960100B4C40464
:1050D000006CDC02B0F3960100B4C404006CDC0286
:1050E000B0F3960100000000000000000000000086
:1050F00000000000000000000000000000B4C40434
:10510000005A6202B0F396010000000000000000A7
:10511000000000000000000000000000000000008F
:10512000000000000041414141410000000000003A
:10513000002020202020202020200040400080004F
:105140004848003030303030363030000000000049
:10515000000000000000000000000000000000004F
:10516000000000000000000000000000000000003F
:10517000000000000000000000000000000000002F
:10518000000000000000000000000000000000001F
:10519000000000000000000000000000000000000F
:1051A00073003200210049004A004B004C004D00C2
:1051B0003D00000024003600000020000000380000
:1051C000390000003B005A00660037002C00400008
:1051D0006A006B00000000000C1014182030400022
:1051E0000102030405060708090909090A0A0A0A4F
:1051F0000B0B0B0B0C0C0C0C0D0D0D0D0D0D0D0DEB
:105200000E0E0E0E0E0E0E0E0E0E0E0E0E0E0E0EBE
:105210000F0F0F0F0F0F0F0F0F0F0F0F0F0F0F0F9E
:105220005465726D696E616C005254540053454769
:1052300047455200F8B5C046F8B5C046000000002A
:1052400001B40248844601BC604700BF210300202E
:0852500028FAFF7F01000000B5
:105258001D0E0010000000005D100010710E0010FF
:10526800C50F0010A90800103D0900101909001009
:105278004D0B0010950A0010250A001000000000D0
:105288000000000065090010000000000000000098
:105298000000000000000000000000000000000006
:1052A8000000000000000000FF00000000000000F7
:1052B80011010000000000000000000000000000D4
:1052C80000000000000000000000000000000000D6
:1052D80000000000000000000000000000000000C6
:1052E80000000000000000000000000000000000B6
:1052F800000000000000000000080000000002009C
:1053080000F8010001000000511100100512001002
:1053180055110010000000000000000041120010AC
:105328000000000069120010003C0000A0010020ED
:105338000101010100010000000000000000000060
:1053480000366E01000100030202000000010000A7
:105358000000000000000000000000000000000045
:105368000000000003000101000103000102000029
:105378000000000100000000010000010100000021
:105388000100000000000000000000000000000014
:1053980001010101010101010000000007000000F6
:1053A80018020020010100002B0100000033010059
:1053B80000002C010000002D010000002E0100005B
:1053C800002F010000003001000000000000000074
:1053D800000002000000001000000014FFFFFFFFA3
:1053E80000D0044005000000000000050000000097
:1053F800000000000000000000D00440040000008D
:10540800000000050000000000000000000000008F
:1054180000B004400100000000000001000000008E
:1054280080F00F400101000000B0044002000000BD
:10543800000000010000000080F00F4001010000A2
:105448003B0102000029010000002A010000002B96
:105458000100000033010000003C01020000360199
:10546800000000380102000039010200003D01027D
:1054780000003E010200003F01020000400102005E
:105488000041010200004201020000340100000056
:105498002C010000002D010000002E010000002F4B
:1054A8000100000030010000003101000000000090
:1054B800802270B505000A4C2378134323702378A3
:1054C8005BB2002B06DA712320781840431E9841FE
:1054D80080B270BDAB695A1CF1D09847EFE7C0465F
:0454E800000002407E
:1054EC0000000000000000000000000000000000B0
:1054FC0000000000000000000000000000000000A0
:10550C00000000000000000000000000000000008F
:10551C00000000000000000000000000000000007F
:10552C00000000000000000000000000000000006F
:10553C00000000000000000000000000000000005F
:10554C00000000000000000000000000000000004F
:10555C00000000000000000000000000000000003F
:10556C00000000000000000000000000000000002F
:10557C00000000000000000000000000000000001F
:08558C00000000000000000017
:0400000510000411D2
:00000001FF
